:020000040000FA
:100000000C9463000C948B000C948B000C9472087D
:100010000C9412080C94A4070C948B000C948B0085
:100020000C948B000C948B000C948B000C948B0024
:100030000C948B000C948B000C948B000C948B0014
:100040000C945A070C948B000C948B000C948B002E
:100050000C948B000C948B000C948B000C948B00F4
:100060000C94D2080C948B000000000024002700A0
:100070002A0000000000250028002B0000000000DE
:1000800023002600290004040404040404040202DA
:100090000202020203030303030301020408102007
:1000A0004080010204081020010204081020000012
:1000B0000008000201000003040700000000000027
:1000C0000000F1090A0E11241FBECFEFD8E0DEBFF9
:1000D000CDBF25E0A6E2B3E001C01D92AB31B2076F
:1000E000E1F713E0A0E0B1E0EEECF3E202C005902E
:1000F0000D92A632B107D9F710E0C2E6D0E004C0F5
:100100002197FE010E94E20FC136D107C9F70E9474
:10011000EC0A0C94DA110C94000096E0899FD0014F
:100120001124A85EBB4F90967C936E935F9791E0ED
:1001300091969C939197E0918504F091860490911B
:100140008404992339F0309751F0811108C08091CF
:1001500034040994309719F05C968C91FACF089585
:10016000CF92DF92EF92FF920F931F9396E0899FB9
:10017000F0011124E85EFB4F11A2278D30A1213040
:10018000310551F178F02230310509F451C02330A6
:10019000310509F452C01F910F91FF90EF90DF904D
:1001A000CF9008956623B9F361E070E00E948D005E
:1001B0002FB7F8948091080490910904A0910A0443
:1001C000B0910B042FBF8093700490937104A0939F
:1001D0007204B0937304DFCF9FB7F894C090080403
:1001E000D0900904E0900A04F0900B049FBF0091A6
:1001F0007004109171042091720430917304C01A3C
:10020000D10AE20AF30A009182041091830430E0DB
:1002100020E00C151D052E053F0550F462E070E04E
:100220001F910F91FF90EF90DF90CF900C948D0075
:100230006111B1CF63E070E0F3CF70E060E0F0CF28
:10024000089508950895AF92BF92CF92DF92EF92F2
:10025000FF920F931F93CF93DF936C017B018B0170
:10026000040F151FEB015E01AE18BF08C017D107C0
:1002700059F06991D601ED91FC910190F081E02D4A
:10028000C6010995892B79F7C501DF91CF911F919F
:100290000F91FF90EF90DF90CF90BF90AF900895B7
:1002A000833081F028F4813099F08230A9F00895EC
:1002B0008730A9F08830C9F08430B1F48091800093
:1002C0008F7D03C0809180008F7780938000089598
:1002D00084B58F7784BD089584B58F7DFBCF8091E1
:1002E000B0008F778093B00008958091B0008F7D2B
:1002F000F9CFCF93DF93282F30E0F901E255FF4F7C
:100300008491F901E656FF4FD491F901EA57FF4F66
:10031000C491CC23A1F081110E945001EC2FF0E098
:10032000EE0FFF1FE458FF4FA591B491EC91ED2320
:1003300081E090E009F480E0DF91CF91089580E0C2
:1003400090E0FACF862F0C9479011F93CF93DF931F
:10035000282F30E0F901E255FF4F8491F901E6566C
:10036000FF4FD491F901EA57FF4FC491CC23A9F074
:10037000162F81110E945001EC2FF0E0EE0FFF1FAD
:10038000EE58FF4FA591B4918FB7F894EC911111ED
:1003900008C0D095DE23DC938FBFDF91CF911F91F2
:1003A0000895DE2BF8CF862F642F0C94A501CF93F0
:1003B000DF9390E0FC01E656FF4F24918A579F4F50
:1003C000FC0184918823C9F090E0880F991FFC01FB
:1003D000E859FF4FA591B491FC01EE58FF4FC5912C
:1003E000D49161110DC09FB7F8948C912095822310
:1003F0008C938881282328839FBFDF91CF91089514
:10040000623051F49FB7F8943C91822F80958323FA
:100410008C93E8812E2BEFCF8FB7F894EC912E2B95
:100420002C938FBFEACF862F642F0C94D7016F9245
:100430007F928F929F92AF92BF92CF92DF92EF9274
:10044000FF920F931F93CF93DF9381E080938404F7
:100450008FB7F894409108045091090460910A0400
:1004600070910B048FBF8091740490917504A091DA
:100470007604B0917704481B590B6A0B7B0B809173
:10048000800490918104B0E0A0E084179507A6074E
:10049000B70708F01DC1C0E080917E04C81760F462
:1004A000E0917A04F0917B04EC0FF11D62E0808111
:1004B0000E94D701CF5FF0CF712C812C912C540179
:1004C000839480917F04781608F05FC0072D10E0B8
:1004D000E0917C04F0917D04E00FF11F61E08081E8
:1004E0000E94D701E0917C04F0917D04E00FF11FA0
:1004F00060E080810E94A501D501C401072C04C0E1
:10050000880F991FAA1FBB1F0A94D2F76C017C01A8
:10051000E094F094612C80917E046816F8F4C62D66
:10052000D0E0E0917A04F0917B04EC0FFD1F808114
:100530000E9479012496CC0FDD1FC85EDB4F892B0A
:1005400041F4888199818C299D29998388836394BA
:10055000E2CF888199818E219F21F7CFE0917C04A1
:10056000F0917D04E00FF11F61E080810E94A50100
:1005700080917C0490917D04080F191F60E0F801C0
:1005800080810E94D70173949CCFC8E1D4E0FE0122
:100590008FEF9FEF278D30A1232B21F4148E968FA0
:1005A000858F11A2369624E0E435F20799F7F12CF5
:1005B00096E0D92E80917E04F81608F050C0E12C08
:1005C0000F2D10E0000F111F005E1B4F20917F04C4
:1005D000E21608F042C0F801608171810E2C02C061
:1005E000769567950A94E2F7F29E900111242E0DFC
:1005F000311DE8E1F4E080E0458D568D2417350784
:1006000009F46AC08F5F36968A30B1F760FF23C065
:10061000E8E1F4E090E080E0448D411117C0E09102
:100620007804F0917904E20FF31F4081D89EF00125
:10063000D99EF00D1124E85EFB4F448F368F258F35
:1006400010A2178E61E00E94B00005C00196369698
:100650008A30910509F7E394B9CFF394ABCF80E0EA
:1006600099A19111892F2696F4E0C435DF07C1F7CF
:100670009FB7F894409108045091090460910A04CE
:1006800070910B049FBF4093740450937504609362
:100690007604709377048823D9F0809139048823F5
:1006A000B9F08091370490913804019789F48091D2
:1006B0003404DF91CF911F910F91FF90EF90DF9065
:1006C000CF90BF90AF909F908F907F906F90089544
:1006D0001092840480E0EDCF6170B5CF3FB7F894FD
:1006E0008091E5039091E603A091E703B091E803C0
:1006F00026B5A89B05C02F3F19F00196A11DB11D7D
:100700003FBFBA2FA92F982F8827BC01CD01620FB8
:10071000711D811D911D42E0660F771F881F991F73
:100720004A95D1F708958F929F92AF92BF92CF9240
:10073000DF92EF92FF924B015C010E946E036B010E
:100740007C010E946E036C197D098E099F09683E29
:10075000734081059105A8F321E0821A9108A10850
:10076000B10888EEC80E83E0D81EE11CF11C81148C
:100770009104A104B10429F7FF90EF90DF90CF908E
:10078000BF90AF909F908F9008950895209173032C
:10079000260F3327331F21323105ECF42091BC039F
:1007A000FC0190E080E0243069F082E00895A0919F
:1007B00073032191AC014D5A5C4FA40FB52FB11DAD
:1007C0002C930196861798F380917303680F6093BA
:1007D000730380E0089581E008951092BC0381E0E6
:1007E0008093BB031092960361E082E10E94A50111
:1007F00061E083E10E94A501E9EBF0E080818E7F5A
:10080000808380818D7F808388E48093B80085E435
:100810008093BC000895CF93DF9391E090935203AF
:100820008823B9F0C091B800D091BA008091BC0083
:100830008A7B8093BC0060E082E10E94A50160E0B9
:1008400083E10E94A5010E94ED03D093BA00C093FA
:10085000B800DF91CF9108950895E091F903809158
:10086000F803E81730F4F0E0EE5CFC4F808190E094
:1008700008958FEF9FEF08959091F9038091F80309
:100880002FEF3FEF981748F4E92FF0E0EE5CFC4FB4
:10089000208130E09F5F9093F903C9010895809112
:1008A000F8039091F903891B990B0895CF92DF9279
:1008B000EF92FF920F931F93CF93DF937C01CB01B5
:1008C0008A012091C203222389F0EB016B01C40E3F
:1008D000D51ECC15DD0569F06991D701ED91FC912C
:1008E0000190F081E02DC7010995F3CF642F0E949C
:1008F000C603C801DF91CF911F910F91FF90EF9038
:10090000DF90CF900895CF93DF931F92CDB7DEB7DE
:1009100069832091C2032223F9F02091F60320324B
:1009200058F021E030E0FC013383228390E080E046
:100930000F90DF91CF9108958091F703E82FF0E0B9
:10094000ED53FC4F998190838F5F8093F7038093E1
:10095000F60381E090E0ECCF61E0CE0101960E94C9
:10096000C603F7CFCF92DF92EF92FF920F931F93C0
:10097000CF93DF93FC01C48121E02093C203C09395
:10098000E3031092F7031092F6038385682B8CE043
:1009900094E00E948304D091F603D13208F092C013
:1009A0000E946E036B017C018091BC03811165C0C4
:1009B00082E08093BC0381E08093BB038FEF809340
:1009C000BA031092B903D093B803A3ECB3E0E8E9FB
:1009D000F3E080E0D81385C01092970380919703CD
:1009E000CC0FC82BC093970380919603813009F0F8
:1009F0007CC0109296030E946E036B017C01809173
:100A000097038093BB008091BE039091BF03A09198
:100A1000C003B091C103892B8A2B8B2B99F00E94C4
:100A20006E030091BE031091BF032091C00330916B
:100A3000C1036C197D098E099F090617170728073E
:100A40003907E0F18091BC0083FDD9CF85EC80931C
:100A5000BC000E946E036B017C018091BC0382305C
:100A600009F445C08091BA038F3F61F18091BA03C8
:100A7000803241F18091BA0325C08091BE039091EC
:100A8000BF03A091C003B091C103892B8A2B8B2B8C
:100A900009F48ACF0E946E030091BE031091BF0338
:100AA0002091C0033091C1036C197D098E099F0903
:100AB000061717072807390708F076CF8091BD037E
:100AC0000E940B041092F7031092F6031092C203D7
:100AD000DF91CF911F910F91FF90EF90DF90CF901A
:100AE00008959D9191938F5F75CF85EEB0CF8091E2
:100AF000BE039091BF03A091C003B091C103892BA5
:100B00008A2B8B2B09F4A9CF0E946E030091BE03A0
:100B10001091BF032091C0033091C1036C197D096E
:100B20008E099F09061717072807390708F095CF80
:100B3000C5CF90E080E0089580912A0381110DC017
:100B40000E946E036093260370932703809328030B
:100B50009093290381E080932A0382E00E94790127
:100B6000892B59F00E946E0360932603709327032C
:100B7000809328039093290308950E946E03209187
:100B8000260330912703621B730B70930304609359
:100B9000020408950F931F93CF938C01C62F0E94D8
:100BA000B2046C2F6460C8010E94B2046C2F6B7F8A
:100BB000C8010E94B20483EC90E00197F1F7CF9155
:100BC0001F910F9108950F931F93CF93DF938C0183
:100BD000D62FC42F607F642B0E94CA0580E1D89F66
:100BE000B00111246C2BC801DF91CF911F910F919F
:100BF0000C94CA05CF93DF93CDB7DEB728970FB615
:100C0000F894DEBF0FBECDBF98E0E7E4F1E0DE016F
:100C1000119601900D929A95E1F790918F04961795
:100C200010F46FEF690F262F30E0220F331F41E0E1
:100C300050E04C0F5D1F240F351FF9016081680FD4
:100C4000606840E087E894E028960FB6F894DEBF2D
:100C50000FBECDBFDF91CF910C94E305FF920F93B0
:100C60001F93CF93DF9320912801022F10E036E0ED
:100C7000239F800D911D1124EC012697FF24F394EE
:100C800020912801822F90E0029680179107BCF0F6
:100C9000809104048017110694F06F2D621B600F81
:100CA00080E00E94FA054C815D816881798187E846
:100CB00094E00E9423010F5F1F4F2696E1CFDF9142
:100CC000CF911F910F91FF90089540E061E087E878
:100CD00094E00E94E3058BE39FE10197F1F708950B
:100CE00041E00E94E30581E090E008958F929F9299
:100CF000AF92BF920F931F93CF93DF93CDB7DEB721
:100D0000A1970FB6F894DEBF0FBECDBF19A2423037
:100D100008F44AE08E010F5D1F4F842E912CB12CF8
:100D2000A12CA50194010E94C00FE62FB901CA01B0
:100D3000EA3044F5E05DD801EE938D01232B242B9E
:100D4000252B79F790E080E0109769F0FD01019084
:100D50000020E9F73197AF014A1B5B0BBD0187E823
:100D600094E00E942301A1960FB6F894DEBF0FBE57
:100D7000CDBFDF91CF911F910F91BF90AF909F900A
:100D80008F900895E95CD7CFFC0101900020E9F72E
:100D90003197AF01481B590BBC0187E894E00C94D4
:100DA0002301FC0180819181009711F00C94841043
:100DB0000895EF92FF920F931F93CF93DF93EC016F
:100DC0007B01198218821B821A821D821C82FB0100
:100DD00001900020E9F731978F01061B170BB8012E
:100DE0006F5F7F4F90E080E00E940D110097B9F097
:100DF000998388831B830A832C813D81232B11F4E3
:100E0000FC0110821D830C83B70188819981DF91D9
:100E1000CF911F910F91FF90EF900C94D311888187
:100E20009981009711F00E948410198218821D8206
:100E30001C821B821A82DF91CF911F910F91FF902C
:100E4000EF90089585ED8093BC008091BE03909152
:100E5000BF03A091C003B091C1030796A11DB11DAE
:100E600023E0B695A795979587952A95D1F7209178
:100E7000BC0024FD03C01092BC0308954091BE0342
:100E80005091BF036091C0037091C103452B462B65
:100E9000472B69F30097A105B10541F02AE22A9595
:100EA000F1F700C00197A109B109E1CF8091BD031D
:100EB0000C940B041F920F920FB60F9211242F93D4
:100EC0003F938F939F93AF93BF938091080490912A
:100ED0000904A0910A04B0910B043091E40323E0CB
:100EE000230F2D3758F50196A11DB11D2093E40362
:100EF0008093080490930904A0930A04B0930B0410
:100F00008091E5039091E603A091E703B091E80397
:100F10000196A11DB11D8093E5039093E603A09374
:100F2000E703B093E803BF91AF919F918F913F91F9
:100F30002F910F900FBE0F901F90189526E8230F4A
:100F40000296A11DB11DD2CF1F920F920FB60F9224
:100F500011242F933F934F935F936F937F938F93BE
:100F60009F93AF93BF93CF93EF93FF9399B18091EA
:100F7000EB03C091F103C923282F2095C2232091B0
:100F8000EE038223292F20958223C82B9093EB0315
:100F9000C4FF05C0E0911801F09119010995C5FF42
:100FA00005C0E0911A01F0911B010995C6FF05C02B
:100FB000E0911C01F0911D010995C7FF05C0E0916A
:100FC0001E01F0911F010995C0FF05C0E0912001AD
:100FD000F09121010995C1FF05C0E0912201F09136
:100FE00023010995C2FF05C0E0912601F091270178
:100FF0000995C3FF05C0E0912401F09125010995F1
:10100000FF91EF91CF91BF91AF919F918F917F9180
:101010006F915F914F913F912F910F900FBE0F9065
:101020001F9018951F920F920FB60F9211242F93B5
:101030003F934F935F936F937F938F939F93AF9360
:10104000BF93CF93EF93FF9396B18091EA03C09142
:10105000F003C923282F2095C2232091ED0382237A
:10106000292F20958223C82B9093EA03C0FF05C047
:10107000E0910C01F0910D010995C1FF05C0E091CF
:101080000E01F0910F010995C2FF05C0E09110011A
:10109000F09111010995C3FF05C0E0911201F09193
:1010A00013010995C4FF05C0E0911401F0911501E9
:1010B0000995C5FF05C0E0911601F091170109954A
:1010C000FF91EF91CF91BF91AF919F918F917F91C0
:1010D0006F915F914F913F912F910F900FBE0F90A5
:1010E0001F9018951F920F920FB60F9211242F93F5
:1010F0003F934F935F936F937F938F939F93AF93A0
:10110000BF93CF93EF93FF9393B18091E903C09185
:10111000EF03C923282F2095C2232091EC038223BB
:10112000292F20958223C82B9093E903C0FF05C087
:10113000E0910001F09101010995C1FF05C0E09126
:101140000201F09103010995C2FF05C0E09104017D
:10115000F09105010995C3FF05C0E0910601F091EA
:1011600007010995C4FF05C0E0910801F09109014C
:101170000995C5FF05C0E0910A01F0910B010995A1
:10118000FF91EF91CF91BF91AF919F918F917F91FF
:101190006F915F914F913F912F910F900FBE0F90E4
:1011A0001F9018951F920F920FB60F9211242F9334
:1011B0003F934F935F936F937F938F939F93AF93DF
:1011C000BF93EF93FF938091B900887F803609F435
:1011D0004AC0F0F5883209F4A7C018F5803109F447
:1011E0009BC0B8F4882309F4F9C0883009F494C08E
:1011F000FF91EF91BF91AF919F918F917F916F91EF
:101200005F914F913F912F910F900FBE0F901F90C4
:101210001895883109F488C0803251F78093BA0359
:1012200014C0803409F49DC040F48033B9F388338E
:10123000F9F68093BA0385ECB0C0803509F485C017
:10124000883509F496C0883499F60E942207D0CFD9
:10125000883909F48CC038F5883729F050F488367D
:1012600011F0803729F683E08093BC031092950338
:1012700057C0883809F47BC0803919F0803809F0EC
:10128000B7CF80919503803208F071C0E09195034B
:1012900081E08E0F809395038091BB00F0E0EB58C6
:1012A000FC4F80833DC0803B39F0E0F4803A09F484
:1012B00079C0883A09F09CCF84E08093BC031092F7
:1012C000740310927303E091F403F091F503099510
:1012D0008091730381110FC081E08093730310929A
:1012E000530309C0803C09F4A6CF883C09F4A3CF7E
:1012F000883B09F07DCFE091740381E08E0F8093ED
:101300007403F0E0ED5AFC4F80818093BB00909114
:1013100074038091730329C0809197038093BB006D
:1013200085EC8093BC0064CF9091B9038091B803A1
:10133000981758F5E091B90381E08E0F8093B903B7
:10134000F0E0E856FC4F8081E9CFE091B90381E0FD
:101350008E0F8093B9038091BB00F0E0E856FC4FFC
:1013600080839091B9038091B8039817C8F285E8FB
:10137000D8CFE091B90381E08E0F8093B9038091BB
:10138000BB00F0E0E856FC4F80838091BB038111E5
:101390005CCF81E08093960384EA8093BC00109236
:1013A000BC0326CF85EC8093BC001092BC038091D7
:1013B0009503803230F4E0919503F0E0EB58FC4F58
:1013C00010826091950370E0E091F203F091F303D5
:1013D00085E793E00995109295030ACF1092BA031E
:1013E00034CF10920F0410920E0488EE93E0A0E028
:1013F000B0E08093100490931104A0931204B09372
:10140000130483E591E090930D0480930C0467E747
:1014100071E08FEF94E00E94D90665E871E085E005
:1014200095E00E94D90663E971E08BE095E00E94A7
:10143000D90661EA71E081E195E00E94D9066FEA80
:1014400071E083EF94E00E94D9066DEB71E089EFC3
:1014500094E00E94D9066BEC71E08BED94E00E9461
:10146000D9066AED71E081EE94E00E94D90669EE3A
:1014700071E087EE94E00E94D90668EF71E08DEE8E
:1014800094E00E94D90667E072E087EB94E00E9446
:10149000D90666E172E08DEB94E00E94D90665E220
:1014A00072E083EC94E00E94D90664E372E089EC78
:1014B00094E00E94D90663E472E08FEC94E00E940D
:1014C000D90662E572E085ED94E00E94D90661E6F6
:1014D00072E085EA94E00E94D90660E772E08BEA48
:1014E00094E00E94D9066FE772E081EB94E00E94DD
:1014F000D90661E672E083E994E00E94D90660E7CC
:1015000072E089E994E00E94D9066FE772E08FE902
:1015100094E00E94D90610928A04109289048FE602
:1015200091E0909388048093870480E280938B04F9
:1015300084E18093900484E080939104109292045B
:1015400010921A0410921E0410921D0410921F048F
:1015500085E691E09093190480931804E4E3F4E0A5
:1015600080E794E0108214821382158236968E17DB
:101570009F07C1F78DE291E090937B0480937A04FA
:1015800089E291E090937D0480937C0484E08093D1
:101590007E0480937F0481E391E0909379048093AB
:1015A00078048AE090E0909381048093800484EF33
:1015B00091E09093830480938204109286041092A9
:1015C000850410927404109275041092760410929F
:1015D0007704109284040895789484B5826084BD61
:1015E00084B5816084BD85B5826085BD85B5816027
:1015F00085BD80916E00816080936E0010928100A5
:10160000809181008260809381008091810081605F
:101610008093810080918000816080938000809120
:10162000B10084608093B1008091B00081608093AC
:10163000B00080917A00846080937A0080917A0073
:10164000826080937A0080917A00816080937A0032
:1016500080917A00806880937A001092C10061E0E6
:101660008EE00E94D70160E082E00E94D7011092D4
:1016700003041092020462E082E00E94D7018CE928
:1016800095E090932701809326018091F103846077
:101690008093F1038091EE0384608093EE0389B11F
:1016A0008093EB0380916D00846080936D00809146
:1016B00068008460809368001092F9031092F80328
:1016C0001092F7031092F6030E94ED0380E291E07E
:1016D0009093F5038093F40381E291E09093F303F8
:1016E0008093F20310928C0480919104823018F060
:1016F00098E090938C0480938F0462E370E080E024
:1017000090E00E9493036091920487E894E00E9425
:10171000B20468EE73E080E090E00E94930360E31F
:1017200087E894E00E94CA05CBE4D6E4CE01019795
:10173000F1F760E387E894E00E94CA052197F1F78A
:1017400060E387E894E00E94CA0583E592E0019790
:10175000F1F760E287E894E00E94CA0560918C048A
:10176000606240E087E894E00E94E30584E08093B3
:101770008D0440E06CE087E894E00E94E3050E945D
:10178000650682E080938E0440E066E087E894E09E
:101790000E94E30540E062E087E894E00E94E305F0
:1017A0008BE39FE10197F1F788E08093920460E07A
:1017B00087E894E00E94B2040E94650660E085E03C
:1017C0000E94FA058EE892E00E94C40661E080E083
:1017D0000E94FA058AE992E00E94C40662E080E075
:1017E0000E94FA0585EA92E00E94C40661E08DE05D
:1017F0000E94D70161E08CE00E94D70161E08BE09C
:101800000E94D70161E08AE00E94D70161E08DE08B
:101810000E94A50161E08CE00E94A50161E08BE0DF
:101820000E94A50161E08AE00E94A50162E08EE0CD
:101830000E94FA0580EB92E00E94C406C3E0D0E06B
:1018400007E310E090E0E92E90E0F92E24E0D22E9C
:1018500036E0732E42E0C42E60E08EE00E94A501C7
:10186000CE010197F1F761E08EE00E94A501C80169
:101870000197F1F760E08EE00E94A50160910204FB
:101880007091030490E080E06093FE037093FF0387
:1018900080930004909301040E945A0E26E933E4D9
:1018A0004BE85CE30E94950E20E030E040E251E41A
:1018B0000E94950E0E948A0F6093FA037093FB03B7
:1018C0008093FC039093FD0362E08EE00E94FA0592
:1018D00080EB92E00E94C40661E070E080E090E05E
:1018E0000E94930363E080E10E94FA058091FE0369
:1018F0009091FF03A0910004B0910104843F9140B6
:10190000A105B1056CF58090FA039090FB03A090BF
:10191000FC03B090FD034AE0C501B401B7FE0EC060
:1019200041E06DE287E894E00E94E30566277727AF
:10193000CB01681979098A099B094AE00E94760659
:101940000E941702882329F0813379F0823309F449
:1019500051C1E114F10409F47FCF0E9400007CCF53
:1019600081E991E00E94C406EBCF81E080932801D9
:10197000109207048093060410920504D092040488
:101980000E94650660E085E00E94FA0585EB92E022
:101990000E94C4068BED94E00E942E0680910704FD
:1019A0008111D7CFB090060481E0B812D2CF8091D8
:1019B00005048111CECF0E9417029FEC980F94303E
:1019C00068F7823309F449C0833309F4C0C0813316
:1019D00009F0BFCFB0922801C0920604C09204045F
:1019E0000E94650660E085E00E94FA0584EC92E0C2
:1019F0000E94C40683EF94E00E942E06AA24A394BA
:101A0000809107048111A5CFB090060422E0B212A4
:101A1000A0CF8091050481119CCF0E9417029FECFA
:101A2000980F923068F7823369F0A09205040E9403
:101A3000650660E085E00E94FA0583E193E00E947C
:101A4000C406DECFB09205040E94650660E085E022
:101A50000E94FA058EEF92E0F2CF83E080930604B5
:101A6000709204040E94650660E085E00E94FA0519
:101A700084EC92E00E94C406B092280187EB94E0C7
:101A80000E942E06AA24A39480910704811161CF9D
:101A9000B090060483E0B8125CCF809105048111F8
:101AA00058CF0E9417029FEC980F963068F7843346
:101AB000B9F18CF48233F1F0833339F1A09205044B
:101AC0000E94650660E085E00E94FA0580ED92E0E4
:101AD0000E94C406D9CF853371F1863379F77092AD
:101AE00005040E94650660E085E00E94FA0583E136
:101AF00093E0EECFC09205040E94650660E085E0A9
:101B00000E94FA0589ED92E0E3CFB09205040E94AD
:101B1000650660E085E00E94FA0582EE92E0D8CF8B
:101B2000D09205040E94650660E085E00E94FA05F7
:101B30008DEE92E0CDCF85E0809305040E9465068E
:101B400060E085E00E94FA0588EF92E0C1CFB09294
:101B50002801D092060483E0809304040E94650665
:101B600060E085E00E94FA0584EC92E00E94C406E1
:101B700085EA94E00E942E0683E0B82EAA24A3945E
:101B8000809107048111E5CE80910604843009F02C
:101B9000E0CE809105048111DCCE0E9417029FECFB
:101BA000980F933068F7823379F08333C1F0A092B5
:101BB00005040E94650660E085E00E94FA0583E066
:101BC00093E00E94C406DCCFC09205040E94650623
:101BD00060E085E00E94FA058DE093E0F2CFB092DC
:101BE00005040E94650660E085E00E94FA0589E12F
:101BF00093E0E7CF81E0809328018093070410925F
:101C0000060410920504D09204048FEF94E00E9421
:101C10002E069FCECF93DF938FE994E00E94D106EA
:101C200089E994E00E94D10683E994E00E94D106FC
:101C300081EB94E00E94D1068BEA94E00E94D106E9
:101C400085EA94E00E94D106CBEDD4E02697CE0140
:101C50000E94D10684E0C73BD807C1F78DEE94E01F
:101C60000E94D10687EE94E00E94D10681EE94E0B6
:101C70000E94D1068BED94E00E94D10689EF94E09A
:101C80000E94D10683EF94E00E94D10681E195E0A5
:101C90000E94D1068BE095E00E94D10685E095E098
:101CA0000E94D1068FEF94E0DF91CF910C94D10682
:101CB000E89409C097FB3EF49095809570956195E6
:101CC0007F4F8F4F9F4F9923A9F0F92F96E9BB279C
:101CD0009395F695879577956795B795F111F8CF18
:101CE000FAF4BB0F11F460FF1BC06F5F7F4F8F4F83
:101CF0009F4F16C0882311F096E911C0772321F079
:101D00009EE8872F762F05C0662371F096E8862F10
:101D100070E060E02AF09A95660F771F881FDAF767
:101D2000880F9695879597F908950E94A80E0C94B0
:101D3000190F0E940B0F38F00E94120F20F095230C
:101D400011F00C94020F0C94080F11240C944D0FF9
:101D50000E942A0F70F3959FC1F3950F50E0551F15
:101D6000629FF001729FBB27F00DB11D639FAA27F0
:101D7000F00DB11DAA1F649F6627B00DA11D661F3F
:101D8000829F2227B00DA11D621F739FB00DA11D60
:101D9000621F839FA00D611D221F749F3327A00D1A
:101DA000611D231F849F600D211D822F762F6A2FB6
:101DB00011249F5750409AF0F1F088234AF0EE0F1B
:101DC000FF1FBB1F661F771F881F91505040A9F748
:101DD0009E3F510580F00C94020F0C944D0F5F3F15
:101DE000E4F3983ED4F3869577956795B795F79584
:101DF000E7959F5FC1F7FE2B880F911D96958795FC
:101E000097F9089597F99F6780E870E060E008957A
:101E10009FEF80EC089500240A9416161706180602
:101E20000906089500240A941216130614060506DE
:101E30000895092E0394000C11F4882352F0BB0F6F
:101E400040F4BF2B11F460FF04C06F5F7F4F8F4FD2
:101E50009F4F089557FD9058440F551F59F05F3F0D
:101E600071F04795880F97FB991F61F09F3F79F0BC
:101E700087950895121613061406551FF2CF46953E
:101E8000F1DF08C0161617061806991FF1CF8695C0
:101E90007105610508940895E894BB2766277727A4
:101EA000CB0197F908952F923F924F925F926F92D4
:101EB0007F928F929F92AF92BF92CF92DF92EF92DA
:101EC000FF920F931F93CF93DF93CDB7DEB7CA1B5B
:101ED000DB0B0FB6F894DEBF0FBECDBF09942A8886
:101EE000398848885F846E847D848C849B84AA842E
:101EF000B984C884DF80EE80FD800C811B81AA81BB
:101F0000B981CE0FD11D0FB6F894DEBF0FBECDBF85
:101F1000ED0108950E94910F6894B1110C944D0F3A
:101F200008950E94320F88F09F5798F0B92F992793
:101F3000B751B0F0E1F0660F771F881F991F1AF0B4
:101F4000BA95C9F714C0B13091F00E944C0FB1E0BE
:101F500008950C944C0F672F782F8827B85F39F0BD
:101F6000B93FCCF3869577956795B395D9F73EF44D
:101F700090958095709561957F4F8F4F9F4F0895F5
:101F8000A1E21A2EAA1BBB1BFD010DC0AA1FBB1F7D
:101F9000EE1FFF1FA217B307E407F50720F0A21BEF
:101FA000B30BE40BF50B661F771F881F991F1A945C
:101FB00069F760957095809590959B01AC01BD0186
:101FC000CF010895EE0FFF1F0590F491E02D0994C5
:101FD0000F931F93CF93DF938230910510F482E02B
:101FE00090E0E0911905F0911A0530E020E0B0E0B2
:101FF000A0E0309799F42115310509F44AC0281B57
:10200000390B24303105D8F58A819B816115710522
:1020100089F1FB0193838283FE0111C040815181CC
:102020000281138148175907E0F04817590799F4BE
:10203000109761F012960C93129713961C93329698
:10204000CF01DF91CF911F910F9108950093190552
:1020500010931A05F4CF2115310551F0421753079B
:1020600038F0A901DB019A01BD01DF01F801C1CF00
:10207000EF01F9CF90931A0580931905CDCFFE019A
:10208000E20FF31F81939193225031093983288302
:10209000D7CF2091170530911805232B41F42091BB
:1020A0004301309144013093180520931705209186
:1020B0004101309142012115310541F42DB73EB760
:1020C0004091450150914601241B350BE0911705C5
:1020D000F0911805E217F307A0F42E1B3F0B281709
:1020E000390778F0AC014E5F5F4F2417350748F091
:1020F0004E0F5F1F509318054093170581939193DE
:102100009FCFF0E0E0E09CCFCF93DF930097E9F022
:10211000FC01329713821282A0911905B0911A0521
:10212000ED0130E020E01097A1F420813181820F91
:10213000931F20911705309118052817390709F0CA
:1021400061C0F0931805E0931705DF91CF910895D2
:10215000EA01CE17DF07E8F54A815B819E01411550
:102160005105B1F7E901FB83EA8349915991C40F05
:10217000D51FEC17FD0761F4808191810296840FD1
:10218000951FE90199838883828193819B838A8348
:10219000F0E0E0E012968D919C9113970097B9F5CD
:1021A0002D913C911197CD010296820F931F2091A2
:1021B0001705309118052817390739F6309751F56A
:1021C00010921A0510921905B0931805A0931705DF
:1021D000BCCFD383C28340815181840F951FC81720
:1021E000D90761F44E5F5F4F88819981480F591F6D
:1021F000518340838A819B8193838283211531059A
:1022000009F0B0CFF0931A05E09319059ECFFD01B8
:10221000DC01C0CF13821282D7CFB0E0A0E0E3E1AF
:10222000F1E10C94550F8C01009751F4CB010E9401
:10223000E80F8C01C801CDB7DEB7E0E10C94710F57
:10224000FC01E60FF71F9C0122503109E217F3074A
:1022500008F49DC0D901CD91DC911197C617D7071D
:1022600098F0C530D10530F3CE0104978617970753
:1022700008F3C61BD70B2297C193D1936D937C9320
:10228000CF010E948410D6CF5B01AC1ABD0A4C016D
:102290008C0E9D1EA0911905B0911A05512C412C50
:1022A000F12CE12C109731F58091170590911805CC
:1022B0008815990509F05CC04616570608F058C005
:1022C0008091410190914201009741F48DB79EB7F2
:1022D0004091450150914601841B950BE817F90781
:1022E00008F055C0F0931805E0931705F9017183C4
:1022F0006083A0CF8D919C91119712966C9012974C
:1023000013967C901397A815B90559F56C0142E016
:10231000C40ED11CCA14DB0420F1AC014A195B09BC
:10232000DA011296159780F062827382518340839E
:10233000D9016D937C93E114F10471F0D7011396E8
:10234000FC93EE93129776CF22968C0F9D1FF90186
:1023500091838083F301EFCFF0931A05E093190581
:1023600069CF4816590608F42C017D01D3019ACF94
:10237000CB010E94E80F7C01009749F0AE01B80143
:102380000E94CA11C8010E948410870153CF10E037
:1023900000E050CFFB01DC0102C001900D924150E2
:1023A0005040D8F70895FB01DC0101900D92002008
:1023B000E1F7089510E0C2E6D0E004C0FE010E94FB
:1023C000E20F2196C336D107C9F7F894FFCF220157
:1023D00022012201220122012201220122012201E5
:1023E00022012201220122012201220122012201D5
:1023F000220122012201010708090F030405063109
:1024000032334134353642373839432A3023440099
:10241000001B058000000040001400540000000074
:10242000008304560499052C044F043C042D040039
:102430000000001302D301A2010000000070062377
:10244000019905C503312D33303420312E3520312B
:10245000333500322D33303420312E3520313230B7
:1024600000332D33303420312E35203135300034D7
:102470002D4E4F204C494D4D4954202000312D43C5
:102480004F56455220202020202000322D424F441C
:10249000592020202020202000312D46554C4C2052
:1024A0004849474820202000322D545249504F447B
:1024B00045202020202000332D42415252494552D0
:1024C000202020202000342D4859445241554C4CA6
:1024D0004943204200312D4D41494E204C45472073
:1024E00020202000322D444F4F52204C45472020C1
:1024F000202000332D444F4F5220434F5645522049
:102500002000342D494E434C20424F445920202076
:1025100000352D464958454420424F44592020005B
:10252000362D434F564552202020202020200031B8
:102530002D4D41494E20424F445920202000322D3C
:102540004C4152474520434F5645522000332D53AE
:102550004D414C4C20434F564552200053454C456D
:102560004354204D4F444500312D4155544F205385
:10257000455100322D46524545205345510064696E
:1025800073740053454C4543542050524F445543B7
:10259000540053454C4543542050415254004D4142
:1025A000494E204C454700444F4F52204C45470070
:1025B000444F4F5220434F56455200494E434C2002
:1025C000424F44592000464958454420424F4459FF
:1025D000004D41494E20424F4459004C415247451D
:1025E00020434F56455200534D414C4C20434F56CB
:0425F0004552000050
:107E0000112484B714BE81FFF0D085E080938100F7
:107E100082E08093C00088E18093C10086E0809377
:107E2000C20080E18093C4008EE0C9D0259A86E02C
:107E300020E33CEF91E0309385002093840096BBD3
:107E4000B09BFECF1D9AA8958150A9F7CC24DD24C4
:107E500088248394B5E0AB2EA1E19A2EF3E0BF2EE7
:107E6000A2D0813461F49FD0082FAFD0023811F036
:107E7000013811F484E001C083E08DD089C08234E0
:107E800011F484E103C0853419F485E0A6D080C0E4
:107E9000853579F488D0E82EFF2485D0082F10E0AE
:107EA000102F00270E291F29000F111F8ED06801E7
:107EB0006FC0863521F484E090D080E0DECF843638
:107EC00009F040C070D06FD0082F6DD080E0C81688
:107ED00080E7D80618F4F601B7BEE895C0E0D1E017
:107EE00062D089930C17E1F7F0E0CF16F0E7DF06D8
:107EF00018F0F601B7BEE89568D007B600FCFDCFD4
:107F0000A601A0E0B1E02C9130E011968C91119780
:107F100090E0982F8827822B932B1296FA010C0160
:107F200087BEE89511244E5F5F4FF1E0A038BF0790
:107F300051F7F601A7BEE89507B600FCFDCF97BE46
:107F4000E89526C08437B1F42ED02DD0F82E2BD052
:107F50003CD0F601EF2C8F010F5F1F4F84911BD097
:107F6000EA94F801C1F70894C11CD11CFA94CF0C13
:107F7000D11C0EC0853739F428D08EE10CD085E9AC
:107F80000AD08FE07ACF813511F488E018D01DD067
:107F900080E101D065CF982F8091C00085FFFCCF94
:107FA0009093C60008958091C00087FFFCCF809118
:107FB000C00084FD01C0A8958091C6000895E0E648
:107FC000F0E098E1908380830895EDDF803219F02E
:107FD00088E0F5DFFFCF84E1DECF1F93182FE3DFCA
:107FE0001150E9F7F2DF1F91089580E0E8DFEE27F6
:047FF000FF270994CA
:027FFE00040479
:00000001FF
